:1000000009C016C015C014C013C012C011C010C062
:10001000A4C00EC011241FBECFE9CDBF10E0A0E6E2
:10002000B0E001C01D92A136B107E1F711D0B4C014
:10003000E7CFC49ABC9A8CE49DE120EF30E0F9014F
:100040003197F1F70197D9F7A895C498BC9808950E
:100050005F926F927F928F929F92AF92BF92CF9258
:10006000DF92EF92FF920F931F93CF93DF9384B7AA
:1000700014BEC498BC9A10926000F89488E10FB640
:10008000F89481BD11BC0FBE81B5886181BD11BCE2
:100090007894E3E0BE2E7FE3572E68E1662E5DE1A3
:1000A000752E40ECC42E4DE5D42E32E0832E26E092
:1000B000922E90E2E92E9CE1F92E80E1A82E00EF2D
:1000C00010E0B0BE10BE379888B1807888B954BAB5
:1000D00061BC71BC14BE81B5806C81BDA895B5BCF6
:1000E00085B7877E806185BF85B7806285BF88952B
:1000F00085B78F7D85BF80916000882311F7C498F4
:10010000BC9AC6010197F1F7BC9885B58E7F85BD75
:1001100087B813B896B886B1806986B9369A369989
:10012000FECFC7010197F1F7369A3699FECF94B109
:1001300085B1D82FC0E09E01290F311D2A3031052D
:1001400048F477DF80E49FE1F8013197F1F70197F8
:10015000D9F76FDFA0926000B4CF1F920F920FB655
:100160000F9211248F9388E10FB6F89481BD11BCD2
:100170000FBE81B5886181BD11BC8091600088236C
:1001800029F0809160008150809360008F910F90E2
:0C0190000FBE0F901F901895F894FFCF41
:00000001FF
