:1000000009C016C015C014C013C012C011C010C062
:100010001FC00EC011241FBECFE9CDBF10E0A0E667
:10002000B0E001C01D92A136B107E1F730D0A5C004
:10003000E7CFC49ABC9A2FEE89E492E02150804029
:100040009040E1F700C00000A895C498BC980895BE
:100050001F920F920FB60F9211248F9388E10FB663
:10006000F89481BD11BC0FBE81B5886181BD11BC02
:1000700080916000882329F08091600081508093F6
:1000800060008F910F900FBE0F901F90189584B74E
:1000900014BEC498BC9A10926000F89488E10FB620
:1000A000F89481BD11BC0FBE81B5886181BD11BCC2
:1000B000789413E08FE3E82E08E19DE1D92E22E445
:1000C000C22E36E0B32E40E8F42E10BF10BE379893
:1000D00088B1807888B9E4BA01BDD1BC14BE81B5BD
:1000E000806C81BDA89515BD85B7877E806185BF71
:1000F00085B7806285BF889585B78F7D85BF8091E4
:1001000060008111E2CFC498BC9A83EC99E001971A
:10011000F1F700C00000BC9885B58E7F85BDC7B8DB
:1001200013B8B6B886B1806986B9369A3699FECFCB
:1001300083EC99E00197F1F700C00000369A3699F8
:10014000FECF84B195B1D92F90E0C92F9E01280F21
:10015000311D2330310570F46CDF3FEF80E792E012
:10016000315080409040E1F700C0000062DF009312
:0E0170006000ABCFF0926000A8CFF894FFCFF4
:00000001FF
